{
  "contractName": "DoseCommunity",
  "abi": [
    {
      "anonymous": false,
      "inputs": [
        {
          "indexed": false,
          "name": "customerAddress",
          "type": "address"
        },
        {
          "indexed": false,
          "name": "name",
          "type": "string"
        }
      ],
      "name": "NewCustomer",
      "type": "event"
    },
    {
      "anonymous": false,
      "inputs": [
        {
          "indexed": false,
          "name": "customerAddress",
          "type": "address"
        },
        {
          "indexed": false,
          "name": "energy",
          "type": "uint256"
        }
      ],
      "name": "MarketEnergy",
      "type": "event"
    },
    {
      "constant": false,
      "inputs": [
        {
          "name": "_name",
          "type": "string"
        }
      ],
      "name": "registerCustomer",
      "outputs": [],
      "payable": false,
      "stateMutability": "nonpayable",
      "type": "function"
    },
    {
      "constant": true,
      "inputs": [
        {
          "name": "_address",
          "type": "address"
        }
      ],
      "name": "getCustomer",
      "outputs": [
        {
          "name": "",
          "type": "string"
        },
        {
          "name": "",
          "type": "string"
        },
        {
          "name": "",
          "type": "bool"
        }
      ],
      "payable": false,
      "stateMutability": "view",
      "type": "function"
    },
    {
      "constant": false,
      "inputs": [
        {
          "name": "_tariff",
          "type": "string"
        }
      ],
      "name": "setTariff",
      "outputs": [],
      "payable": false,
      "stateMutability": "nonpayable",
      "type": "function"
    },
    {
      "constant": false,
      "inputs": [
        {
          "name": "_energy",
          "type": "uint256"
        }
      ],
      "name": "sendMarketEnergy",
      "outputs": [],
      "payable": false,
      "stateMutability": "nonpayable",
      "type": "function"
    },
    {
      "constant": true,
      "inputs": [
        {
          "name": "_address",
          "type": "address"
        }
      ],
      "name": "isRegistered",
      "outputs": [
        {
          "name": "",
          "type": "bool"
        }
      ],
      "payable": false,
      "stateMutability": "view",
      "type": "function"
    }
  ],
  "bytecode": "0x608060405234801561001057600080fd5b50610b2c806100206000396000f3fe608060405234801561001057600080fd5b50600436106100575760003560e01c80631378d8061461005c5780632abdfd04146100d5578063c3c5a5471461014e578063cb949e51146101aa578063d36566b4146102de575b600080fd5b6100d36004803603602081101561007257600080fd5b810190808035906020019064010000000081111561008f57600080fd5b8201836020820111156100a157600080fd5b803590602001918460018302840111640100000000831117156100c357600080fd5b909192939192939050505061030c565b005b61014c600480360360208110156100eb57600080fd5b810190808035906020019064010000000081111561010857600080fd5b82018360208201111561011a57600080fd5b8035906020019184600183028401116401000000008311171561013c57600080fd5b9091929391929390505050610569565b005b6101906004803603602081101561016457600080fd5b81019080803573ffffffffffffffffffffffffffffffffffffffff169060200190929190505050610642565b604051808215151515815260200191505060405180910390f35b6101ec600480360360208110156101c057600080fd5b81019080803573ffffffffffffffffffffffffffffffffffffffff16906020019092919050505061069f565b60405180806020018060200184151515158152602001838103835286818151815260200191508051906020019080838360005b8381101561023a57808201518184015260208101905061021f565b50505050905090810190601f1680156102675780820380516001836020036101000a031916815260200191505b50838103825285818151815260200191508051906020019080838360005b838110156102a0578082015181840152602081019050610285565b50505050905090810190601f1680156102cd5780820380516001836020036101000a031916815260200191505b509550505050505060405180910390f35b61030a600480360360208110156102f457600080fd5b81019080803590602001909291905050506108c6565b005b336000151561031a82610642565b15151461038f576040517f08c379a000000000000000000000000000000000000000000000000000000000815260040180806020018281038252601e8152602001807f437573746f6d657220697320616c72656164792072656769737465726564000081525060200191505060405180910390fd5b6103976109b8565b604051806060016040528085858080601f016020809104026020016040519081016040528093929190818152602001838380828437600081840152601f19601f8201169050808301925050505050505081526020016040518060400160405280600781526020017f6e6f7420736574000000000000000000000000000000000000000000000000008152508152602001600115158152509050806000803373ffffffffffffffffffffffffffffffffffffffff1673ffffffffffffffffffffffffffffffffffffffff168152602001908152602001600020600082015181600001908051906020019061048b9291906109db565b5060208201518160010190805190602001906104a89291906109db565b5060408201518160020160006101000a81548160ff0219169083151502179055509050507fd5f99988e28e23f0626ca58299a36fbcf9d75d1aa4714700d3eb5dcb1ed30d2a338585604051808473ffffffffffffffffffffffffffffffffffffffff1673ffffffffffffffffffffffffffffffffffffffff168152602001806020018281038252848482818152602001925080828437600081840152601f19601f82011690508083019250505094505050505060405180910390a150505050565b336001151561057782610642565b1515146105ec576040517f08c379a000000000000000000000000000000000000000000000000000000000815260040180806020018281038252601a8152602001807f437573746f6d6572206973206e6f74207265676973746572656400000000000081525060200191505060405180910390fd5b82826000803373ffffffffffffffffffffffffffffffffffffffff1673ffffffffffffffffffffffffffffffffffffffff168152602001908152602001600020600101919061063c929190610a5b565b50505050565b6000806000808473ffffffffffffffffffffffffffffffffffffffff1673ffffffffffffffffffffffffffffffffffffffff16815260200190815260200160002060020160009054906101000a900460ff16905080915050919050565b606080600060606000808673ffffffffffffffffffffffffffffffffffffffff1673ffffffffffffffffffffffffffffffffffffffff1681526020019081526020016000206000018054600181600116156101000203166002900480601f01602080910402602001604051908101604052809291908181526020018280546001816001161561010002031660029004801561077b5780601f106107505761010080835404028352916020019161077b565b820191906000526020600020905b81548152906001019060200180831161075e57829003601f168201915b5050505050905060606000808773ffffffffffffffffffffffffffffffffffffffff1673ffffffffffffffffffffffffffffffffffffffff1681526020019081526020016000206001018054600181600116156101000203166002900480601f0160208091040260200160405190810160405280929190818152602001828054600181600116156101000203166002900480156108595780601f1061082e57610100808354040283529160200191610859565b820191906000526020600020905b81548152906001019060200180831161083c57829003601f168201915b5050505050905060008060008873ffffffffffffffffffffffffffffffffffffffff1673ffffffffffffffffffffffffffffffffffffffff16815260200190815260200160002060020160009054906101000a900460ff1690508282829550955095505050509193909250565b33600115156108d482610642565b151514610949576040517f08c379a000000000000000000000000000000000000000000000000000000000815260040180806020018281038252601a8152602001807f437573746f6d6572206973206e6f74207265676973746572656400000000000081525060200191505060405180910390fd5b7fa57303a1b028f6249da695b424a468c6b13a70760120bb8877fa63080eded7883383604051808373ffffffffffffffffffffffffffffffffffffffff1673ffffffffffffffffffffffffffffffffffffffff1681526020018281526020019250505060405180910390a15050565b604051806060016040528060608152602001606081526020016000151581525090565b828054600181600116156101000203166002900490600052602060002090601f016020900481019282601f10610a1c57805160ff1916838001178555610a4a565b82800160010185558215610a4a579182015b82811115610a49578251825591602001919060010190610a2e565b5b509050610a579190610adb565b5090565b828054600181600116156101000203166002900490600052602060002090601f016020900481019282601f10610a9c57803560ff1916838001178555610aca565b82800160010185558215610aca579182015b82811115610ac9578235825591602001919060010190610aae565b5b509050610ad79190610adb565b5090565b610afd91905b80821115610af9576000816000905550600101610ae1565b5090565b9056fea165627a7a72305820db5a1f87d7bfa17fa0ce1b673535f7684ded6f92fed1acec4002b19d73267dac0029",
  "source": "pragma solidity >=0.4.16 <0.6.0;\n\ncontract DoseCommunity {\n    struct Customer {\n        string name;\n        string tariff;\n        bool isRegistered;\n    }\n\n    mapping(address => Customer) customers;\n\n    /// @notice event fired when a new customer is registered\n    event NewCustomer(address customerAddress, string name);\n\n    /// @notice event fired when market energy is sent\n    event MarketEnergy(address customerAddress, uint256 energy);\n\n    /// modifier to make sure user is not already registered\n    modifier requireNotRegistered(address _address) {\n        require(\n            isRegistered(_address) == false,\n            \"Customer is already registered\"\n        );\n        _;\n    }\n    /// modifier to check if user is a registered user\n    modifier requireIsRegistered(address _address) {\n        require(isRegistered(_address) == true, \"Customer is not registered\");\n        _;\n    }\n\n    /// register customer\n    function registerCustomer(string calldata _name)\n        external\n        requireNotRegistered(msg.sender)\n    {\n        // create new customer from customer struct\n        Customer memory newCustomer = Customer(_name, \"not set\", true);\n        customers[msg.sender] = newCustomer;\n        emit NewCustomer(msg.sender, _name);\n    }\n\n    /// get customer details\n    function getCustomer(address _address)\n        public\n        view\n        returns (string memory, string memory, bool)\n    {\n        string memory name = customers[_address].name;\n        string memory tariff = customers[_address].tariff;\n        bool status = customers[_address].isRegistered;\n        return (name, tariff, status);\n    }\n\n    /// set tariff\n    function setTariff(string calldata _tariff)\n        external\n        requireIsRegistered(msg.sender)\n    {\n        customers[msg.sender].tariff = _tariff;\n    }\n\n    /// send market energy values\n    function sendMarketEnergy(uint256 _energy)\n        external\n        requireIsRegistered(msg.sender)\n    {\n        emit MarketEnergy(msg.sender, _energy);\n    }\n\n    /// utility functions\n\n    /// check if customer is already registered\n    function isRegistered(address _address) public view returns (bool) {\n        bool status = customers[_address].isRegistered;\n        return status;\n    }\n\n}\n",
  "sourcePath": "/home/yahya/Documents/GitHub/dose-community/contracts/DoseCommunity.sol",
  "compiler": {
    "name": "solc",
    "version": "0.5.8+commit.23d335f2.Emscripten.clang"
  },
  "schemaVersion": "3.0.16",
  "updatedAt": "2020-02-05T09:24:36.151Z",
  "devdoc": {
    "methods": {}
  },
  "userdoc": {
    "methods": {
      "getCustomer(address)": {
        "notice": "get customer details"
      },
      "isRegistered(address)": {
        "notice": "utility functions check if customer is already registered"
      },
      "registerCustomer(string)": {
        "notice": "register customer"
      },
      "sendMarketEnergy(uint256)": {
        "notice": "send market energy values"
      },
      "setTariff(string)": {
        "notice": "set tariff"
      }
    }
  }
}